:100000000C9486060C94BE060C94BE060C94282C08
:100010000C94BE060C94BE060C94BE060C94BE0650
:100020000C94BE060C94BE060C9492140C94DB1A2D
:100030000C9427260C94BE060C94BE060C94BE06A7
:100040000C94BE060C94BE060C94BE060C94BE0620
:100050000C94BE060C946B150C94BE060C94BE0654
:100060000C94BE060C94BE060C94BE060C94BE0600
:100070000C94BE060C94BE060C94BE060C94BE06F0
:100080000C94BE060C94BE060C94BE060C94BE06E0
:100090000C94BE060C94BE060C94BE060C94BE06D0
:1000A0000C94BE060C94BE060C94BE062B001400E5
:1000B0001A00080015001700E300040016000700EE
:1000C00009000A00E1001D001B00060019000500E0
:1000D000000000000000E0002152E20031001300A7
:1000E00012000C0018001C00340033000F000E003A
:1000F0000D000B00350038003700360010001100ED
:1001000000000000000022522C0028001E001F00EA
:10011000200021002200230039000100010001001D
:1001200001000100E10001000100010001002900BF
:10013000000000000000E4000100E2002E002D009D
:1001400027002600250024004D004A004F005200E1
:10015000510050004E004B0030002F000100010004
:1001600000000000000001002A004C003A003B00A3
:100170003C003D003E003F000100DD00DE00DF00EE
:10018000D900D1000100010001000100DA000100E6
:10019000000000000000E4000100E200450044000F
:1001A000430042004100400001000100D000CD00AA
:1001B000CE00CF000100010001000100D200D100FB
:1001C000000000000000010001000100000000002C
:1001D000000000000000000000000000000000001F
:1001E000000000000000000000000000000000000F
:1001F00000000000000001000100010000000000FC
:1002000000000000000000000000000000000000EE
:1002100000000000000000000000000000000000DE
:1002200000000000000001000100010000DA02816E
:10023000FFD9F1DB20A4A62EAF00A0C0D30000A1FF
:10024000C8D30000AED580A81F408D142000000147
:100250000101010101010101020202020202020286
:100260000203030303030303030404040404040458
:10027000050505050506060606060707070707081C
:10028000080808090909090A0A0A0B0B0B0C0C0CCF
:100290000D0D0D0E0E0E0F0F0F1010111111121269
:1002A00013131414151516161717181819191A1AE6
:1002B0001B1B1C1D1D1E1E1F202021222223242447
:1002C000252626272829292A2B2C2D2D2E2F303183
:1002D0003232333435363738393A3B3C3D3E3F4095
:1002E0004142434445464748494A4C4D4E4F505180
:1002F0005354555658595A5B5D5E5F61626465663A
:1003000068696B6C6D6F7072737577787A7B7D7EC0
:100310008082838587888A8C8E8F91939596989A10
:100320009C9EA0A2A3A5A7A9ABADAFB1B3B5B7BA28
:10033000BCBEC0C2C4C6C9CBCDCFD1D4D6D8DBDDFC
:10034000DFE2E4E7E9EBEEF0F3F5F8FAFDFF00AFEA
:1003500000AE000000E000F8C0F8E0C0FC007E182D
:100360000080000280F000C080F8C0E070603C387F
:100370003C1C003F0C0F1F030701C300E08000E09E
:1003800080F880C0F7C76F7B3930008000C000C0A4
:10039000C2E000403830381E181E0F0C0707070354
:1003A000032121313018181C080C0E07060703C35F
:1003B00003014CCCC2C24149092B2A6A6E24240491
:1003C0009292B1F1F1F2E6A4A40404282828282886
:1003D0002828636F726E6500209D9E9F2020BDBE01
:1003E000BF2020DDDEDF2000209495962020B4B5CC
:1003F000B62020D4D5D62000209798992020B7B8D1
:10040000B92020D7D8D92000209A9B9C2020BABBA5
:10041000BC2020DADBDC2000202020202000A7A840
:1004200000AFB000C600CA00C800A5A600ADAE006F
:100430008788008F9000C500C900C700CB00858663
:10044000008D8E00ABAC00CFD000C600CA00C80043
:10045000A9AA00B1B2008B8C00CDCE00C500C900A6
:10046000C700CB00898A0091920020200053200011
:100470002020004320002020004E2000000000101B
:1004800000000000000000081C0800000000000040
:10049000000002000000000010000000000000004A
:1004A000200000000000000000020040E0400000CA
:1004B00000000000040000000080C080C080000038
:1004C00000000000E0008000F00000C0000000001C
:1004D0000000004000000000000001008100C0009A
:1004E000FE00FC00FF20FFF00FF000FF0000000006
:1004F0001000000000009000F80000F8FF10FF84DA
:10050000FF60FF36FF0FFF3F005F000580008000A7
:10051000C03800ECF000FB80FFF0FFEFFFE8FF03C6
:10052000FF0CFF00FF00030000F80080FF20FFD059
:10053000FFE0FEF8FFFCFFFF0FFF013FFF000F0091
:1005400001000300FE80FE00C0FFC4FBFFFEFFFFB2
:10055000FF3FFFFF07FF033F000FC0000000B80090
:10056000FF40BEF0FFF1FFFEFFFFFFFF1FFF670030
:10057000EF001F0000070000E000FFF0FF88FFC44D
:10058000FFF8FFFFFFFFFFFF8F7F0FFF0007FE0059
:100590000700000000F800C03FF8E7FFFFFFFF1F63
:1005A000FFFF1F3F01FF0B00FF000005000000E000
:1005B00000F86080FEE3FCFF1EFFFF23FF09FF2021
:1005C000003F0200000F004000C000FCE0FCF0FF14
:1005D000FF7FFCFF0FFF071F00010F000F0081705E
:1005E0000CF0800000E4F8E6703FCFFF1FFF48FFEB
:1005F0000F000700004360F8F0FE38FE00FC030027
:10060000C872CFFC00030F01E01CE003000F0000E4
:100610000000000000F806F900030007FF001012B8
:10062000C9F0CFB47F80E01E0140655EE00000F0BD
:100630000CF000807E018093FCC0000000000000F0
:1006400089182C46000721101080091331BFFF00C4
:10065000081AF70F0000444534BFB80010F008F442
:100660001811FC18FB0E10F804F810201809FF0CE4
:10067000EA1F286030F820C042332100050109023A
:10068000A10185020901A100050919012908150028
:10069000250195087501810205010930093115818F
:1006A000257F95027508810609381581257F9501FA
:1006B00075088106050C0A38021581257F9501759C
:1006C000088106C0C005010980A101850319012A1E
:1006D000B700150126B700950175108100C0050C03
:1006E0000901A101850419012AA002150126A00211
:1006F000950175108100C005010906A101050719C2
:10070000E029E7150025019508750181029501751D
:100710000881010507190029FF150026FF0095062D
:1007200075088100050819012905150025019505A1
:1007300075019102950175039101C009023B000208
:100740000100A0FA090400000103010100092111C0
:10075000010001224400070581030800010904018A
:10076000000103000000092111010001227B0007A4
:1007700005820320000112010002000000081D8D07
:100780003A340001010200012403410075007200A7
:100790006F0072006100200043006F0072006E0065
:1007A000650020007200650076003100000018032B
:1007B000730070006C00690074006B0062002E0012
:1007C00063006F006D0000000403090400000000D6
:1007D00000003E5B4F5B3E003E6B4F6B3E001C3E9D
:1007E0007C3E1C00183C7E3C18001C577D571C00AA
:1007F0001C5E7F5E1C0000183C180000FFE7C3E78A
:10080000FF00001824180000FFE7DBE7FF00304876
:100810003A060E00262979292600407F05050700A3
:10082000407F05253F005A3CE73C5A007F3E1C1C98
:100830000800081C1C3E7F0014227F2214005F5F0A
:10084000005F5F0006097F017F00006689956A00EE
:1008500060606060600094A2FFA2940008047E04BF
:10086000080010207E20100008082A1C0800081C20
:100870002A0808001E10101010000C1E0C1E0C0080
:1008800030383E383000060E3E0E060000000000F4
:10089000000000005F000000000700070000147F58
:1008A000147F1400242A7F2A120023130864620094
:1008B000364956205000000807030000001C224162
:1008C00000000041221C00002A1C7F1C2A0008088E
:1008D0003E08080000807030000008080808080082
:1008E0000000606000002010080402003E514945ED
:1008F0003E0000427F4000007249494946002141C4
:10090000494D33001814127F100027454545390022
:100910003C4A4949310041211109070036494949FA
:100920003600464949291E0000001400000000401E
:1009300034000000000814224100141414141400A0
:100940000041221408000201590906003E415D5988
:100950004E007C1211127C007F49494936003E410D
:10096000414122007F4141413E007F4949494100C8
:100970007F09090901003E41415173007F080808C1
:100980007F0000417F4100002040413F01007F087F
:10099000142241007F40404040007F021C027F0043
:1009A0007F0408107F003E4141413E007F09090954
:1009B00006003E4151215E007F0919294600264963
:1009C0004949320003017F0103003F4040403F009E
:1009D0001F2040201F003F4038403F006314081490
:1009E00063000304780403006159494D4300007F0C
:1009F00041414100020408102000004141417F00B4
:100A00000402010204004040404040000003070887
:100A100000002054547840007F2844443800384473
:100A200044442800384444287F0038545454180063
:100A300000087E0902001824241C78007F080404A2
:100A4000780000447D4000002040403D00007F10C1
:100A50002844000000417F4000007C0478047800B6
:100A60007C08040478003844444438007C1824246A
:100A70001800182424187C007C080404080048543A
:100A80005454240004043F4424003C4040207C0093
:100A90001C2040201C003C4030403C0044281028D2
:100AA00044004C9090907C004464544C44000008F6
:100AB00036410000000077000000004136080000C9
:100AC0000201020402003C2623263C000000000034
:100AD00000000000C0E0F0F8F81800C0F0FCFEFFD5
:100AE000FFFFFFFFFFFF7E00000000F8042252E23C
:100AF000424242E252222222428202022222020484
:100B0000F80000F8040202824222428202020282BB
:100B10004222122242820204F80000F8FCDEAE1EDD
:100B2000BEBEBE1EAEDEDEDEBE7EFEFEDEDEFEFC37
:100B3000F80000F8FCFEFE7EBEDEBE7EFEFE00007B
:100B40000000000080804040202010100808101095
:100B50002020404080808080C0C0E0E0F0F0F8F8C5
:100B6000F0F0E0E0C0C08080808040402020101085
:100B700008081010202040408080808040C060A085
:100B800050B058A850B060A040C0808000F8FCFE73
:100B9000FFE000FFFFFFFFFFFF80FFFFFFFFFFFF02
:100BA000FFFFFF1F070100000000001F20444A470D
:100BB000424242474A44404040404142444440202F
:100BC0001F00001F20404140404040404140414103
:100BD0004F4848484F4141201F00001F3F7B757818
:100BE0007D7D7D78757B7F7F7F7F7E7D7B7B7F3F7B
:100BF0001F00001F3F7F7E7F7F7F7F7F7E7F000003
:100C00000000000088885D5D3E3E7C7CF8F87C7CBE
:100C10003E3E5D5D888888885555232347478F8FE2
:100C200047472323555588888888D5D5E2E2C4C430
:100C30008888C4C4E2E2D5D5888888885DD56BB63B
:100C40006DD6ADDA6DD66BB65DD5888800030F1F03
:100C50003F3F3F3F1F1F3F3F7F7F7F3F3F1F3F7F04
:100C60007F7F7F7C7878381C0F0004F80000F80440
:100C7000201F00001F20FCF80000F8043F1F0000A8
:100C80001F2004F80000F8FC201F00001F3FFCF8A4
:100C90000000F8FC3F1F00001F3FFE7EBEDEEEDEC0
:100CA000BE7EFEFCF8007E7E70777777707E7E3F9A
:100CB0001F00000000000000000000000000000015
:100CC00000000000000001010202040408080404FE
:100CD00002020101000000000101020204040808F0
:100CE00004040202010100000000010103030707E0
:100CF0000F0F0707030301010000000001010302B9
:100D000005060D0A050603020101000011241FBE9D
:100D1000CFEFDAE0DEBFCDBF04B603FE18C080918E
:100D2000910690919206A0919306B0919406873017
:100D3000904BA740B04B59F4109291061092920636
:100D40001092930610929406E0E0F8E3099512E001
:100D5000A0E0B1E0E8EFFCE502C005900D92A239F9
:100D6000B107D9F726E0A2E9B2E001C01D92A1398E
:100D7000B207E1F70E944E260C94262E0C94000038
:100D800080917E04837051F0846080937E04109281
:100D9000620180917D04816080937D040895482FD5
:100DA000209179049091400457E0291302C080E01B
:100DB000089530E0529FF001539FF00D1124EF5B36
:100DC000FB4F8181681306C08081481303C0858171
:100DD0008111EECF2F5F3F4F2770E7CF90917E04B8
:100DE000937071F080937F0460938004413808F021
:100DF00040E84093810480917D04816080937D046C
:100E00000895E8EDF0E080818E7F80831092E2000B
:100E10001092DA001092E100A0EEB0E08C918160B7
:100E20008C9380818F77808319BCA7EDB0E08C9183
:100E30008E7F8C9380818F7E808310922904089509
:100E40002091E4003091E50095E6A9012091EC00A5
:100E5000822F817020FF06C08091E80080FF06C0CD
:100E600080E008952091E80022FD1AC080913604A8
:100E7000882389F0853089F08091EB0085FD0FC0D3
:100E80002091E4003091E50042175307F9F29150A8
:100E9000E1F684E0089582E0089583E0089581E01A
:100EA00008958091380487FF13C08091E80082FF85
:100EB00006C08091E8008B778093E80004C08091A1
:100EC00036048111F2CF0895809136048823D9F336
:100ED0008091E80080FFF8CF8091E8008E77ECCF1A
:100EE000982F9093E900242F762F50E0891731F046
:100EF0007091EC002091ED005091F00021FD07C0B1
:100F00009F5F973071F78093E90081E008953091F9
:100F1000EB003E7F3093EB003091ED003D7F30934E
:100F2000ED003091EB0031603093EB007093EC00FA
:100F30002093ED005093F0002091EE0027FDE0CFCC
:100F400080E00895B0E0A0E0E8EAF7E00C94622DBC
:100F5000C8EDD0E088818F7E8883E7EDF0E0808166
:100F60008160808384E082BF81E08093290488814E
:100F70008E7F888302EE10E0F80110821092DA0072
:100F800081EEC82ED12CF601108288818F7788835C
:100F900088818068888388818F7D888319BC1092BE
:100FA000360410923704109235041092340490EEF7
:100FB000E92EF12CF70180818B7F8083888181600D
:100FC000888342E060E080E00E947007F601808143
:100FD0008E7F8083F801808181608083808188603A
:100FE0008083F70180818E7F808388818061888300
:100FF000CDB7DEB7E8E00C947E2DFC0180913E0475
:1010000090913F0486179707A0F06115710529F4A8
:101010009091E8009E779093E80090E0611571054B
:1010200051F4911108C08091E80082FF34C080E043
:101030000895BC01F2CF809136048823C1F1853038
:10104000C1F18091E80083FD30C08091E80082FD0D
:10105000EACF8091E80080FFE1CF8091F3002091FA
:10106000F200382F6115710519F02830310558F05C
:1010700091E02830310509F090E02091E8002E77CA
:101080002093E800CBCF81918093F10061507109EA
:101090002F5F3F4FE7CF80913604882341F08530A2
:1010A00041F08091E80083FFBECF81E0089582E0A7
:1010B000089583E0089580912B0408952FB7F89444
:1010C0006091250470912604809127049091280452
:1010D0002FBF08959C01FC0132969FEF80E0419163
:1010E000461751F09F3F19F4411101C0982F8F5FAF
:1010F0008630A9F79F3F09F40895290F311D97FD08
:101100003A95F90162830895A3E0B0E0EAE8F8E0D7
:101110000C94682D2091220430912304281739075C
:10112000A1F09093230480932204E0912004F09195
:101130002104309751F024E029839B838A83068021
:10114000F781E02DCE01019609952396E2E00C94FB
:10115000842DA3E0B0E0EFEAF8E00C94682D209134
:101160001E0430911F0428173907A1F090931F0423
:1011700080931E04E0912004F0912104309751F0F7
:1011800023E029839B838A830680F781E02DCE01AB
:10119000019609952396E2E00C94842DCF93DF937A
:1011A00020918F063091900629583440A901460FAE
:1011B000571F4130524020F060E072E0621B730B19
:1011C0004091870450918804FC01C901620F731F8C
:1011D000C1E0D0E08617970738F050938804409319
:1011E0008704DF91CF9108952491DC01A757BB4F6D
:1011F0003C91321781F02C939C01A5E03695279500
:10120000AA95E1F7DE0102C0AA0FBB1F2A95E2F7FB
:101210009D014A2B532B01963196DCCFFC01680FC0
:10122000791F8FEF91E32191822728E030E087FF3B
:1012300009C0880F892721503109C9F7E617F70738
:1012400091F70895880FF7CFFA01811101C0FB01D2
:101250000995089510924D030895EEE7F4E0248176
:1012600030E1231B08F420E0248380917D04816019
:1012700080937D040895EEE7F4E0248130E1230FAC
:1012800008F42FEF248380917D04816080937D0496
:101290000895EEE7F4E0438120E1421B08F440E0CA
:1012A0008181628190E00E94EE060895EEE7F4E00D
:1012B000438120E1420F08F44FEF8181628190E089
:1012C0000E94EE060895EEE7F4E0628120E1621BE1
:1012D00008F460E08181438190E00E94EE06089569
:1012E000EEE7F4E0628120E1620F08F46FEF8181A4
:1012F000438190E00E94EE060895EEE7F4E08181DC
:10130000438162818850990B0E94EE060895EEE7B2
:10131000F4E0818190E04381628108960E94EE06AC
:10132000089580917E0486958695815009F481E028
:101330000E94C006089581E00E94C0060895FF92B1
:101340000F931F93CF93DF93182F062FF42ED0E027
:10135000C0E02F2D402F612FCE010E940E0A219652
:10136000C633D105B1F7CDB7DEB7E5E00C94812DDA
:1013700080913A0380FD16C081FD16C082FD16C023
:10138000809139038823A1F0883280F428E0829F7D
:10139000C001112468E270E00E949B2D862F672B0C
:1013A00039F0089582E0089584E0089588E0089572
:1013B00081E0089580913A0380FD14C081FD14C03E
:1013C00082FD16C080913803882381F08E3180F42D
:1013D00020E5829FC00111246EE170E00E949B2DE8
:1013E000862F089584E1089588E2089588E008959D
:1013F00080E50895282F35EB2303C001112497FFC2
:1014000004C080589109892F089580589F4FFBCFC1
:1014100080E008958FB1829581700895FF920F93B7
:101420001F93CF93DF93EC01F62E042F122F0E940F
:101430000A0A811123C0CB31D1051CF16B97FE0143
:10144000EE0FFF1FDF01AC0FBD1FA25BBC4F11965B
:101450008C9111978F1107C08C91801304C0129644
:101460008C91811771F081E080934D03EC0FFD1F8B
:10147000E25BFC4FF1820083128303C0CB31D105C4
:10148000F4F2CDB7DEB7E5E00C94812DF894E82FA7
:10149000E295EF70F0E031A1282F2F7081E090E00D
:1014A00001C0880F2A95EAF7982F9095932391A36E
:1014B00092A1892B82A37894089590911C0392FFA6
:1014C00010C041E0282F2471243009F040E031E0C1
:1014D000282F2871283009F030E0431711F02CE054
:1014E000822793FF10C041E0282F2471243109F096
:1014F00040E031E0282F2871283109F030E043170F
:1015000011F02CE0822730911D0330FF10C051E014
:10151000282F2171213009F050E041E0282F287157
:10152000283009F040E0541711F029E0822731FFFC
:1015300010C041E0282F2171213109F040E031E055
:10154000282F2871283109F030E0431711F029E0E5
:10155000822794FD877E089582389105B9F1B0F411
:101560008133910509F47DC048F48932910509F46D
:101570006DC08A32910509F47BC0089585339105C9
:1015800009F45FC08933910509F10895833E9105FF
:10159000D9F138F4803E910529F1823E910579F127
:1015A0000895863E9105D9F1873E910509F43EC024
:1015B000843E910541F520911D0321FF24C08091B7
:1015C0001C0384FD19C087EE90E0089520911C0350
:1015D000237009F05AC020911D0323FF14C089E233
:1015E00090E0089520911C0320FD38C030911D0328
:1015F00030FF09C024FF43C090E080E008952091AF
:101600001C0322FDF7CF089520911C0322FD3AC050
:1016100030911D0330FD39C024FFF5CFEDCF20916F
:101620001C0323FFF0CF24FDE7CFCDCF20911C0377
:1016300023FD2EC030911D0331FFEECF84EE90E0EC
:10164000089520911C0325FFDECFC9CF20911C03F4
:1016500025FD21C020911D0323FFD5CF89E390E014
:10166000D2CF20911C0326FFCECF8AE290E00895CE
:1016700020911C0326FFC7CF81E390E0089583EEFD
:1016800090E0089582EE90E0089580EE90E0089555
:1016900086EE90E0089585E390E00895972F7830E6
:1016A000B8F46630A8F48430B0F470E026E0929F7D
:1016B000600D711D1124FB0190E3899FE00DF11D68
:1016C0001124EE0FFF1FE455FF4F8591949108956B
:1016D00080E090E0089581E0FCCF1F93CF93DF93EB
:1016E0000E94AC0AEC01C11580E5D807F0F5C115E0
:1016F00080E4D80708F09CC0C03ED10520F5CD3C61
:10170000D10508F082C0C83AD10578F4C53AD105B0
:1017100008F073C0C130D10519F1209709F1C43028
:10172000D105F0F4D0E0C0E01BC0C33CD105D0F738
:10173000C85AD0E0CC0FDD1FC159DE4F0990D881C7
:10174000C02DD4640DC0C11580E2D80708F0D1C007
:10175000C11581E0D80708F05AC0C83ED10510F77E
:10176000CE01DF91CF911F910895C03682E5D80751
:1017700018F5C03482E5D80708F06BC0C03282E5A6
:10178000D80708F05FC0C11582E5D80708F497C0F4
:101790002C2F2695269580E2289F900111248C2FCE
:1017A0008370C1E0D0E002C0CC0FDD1F8A95E2F764
:1017B000C22BD32BDD68D4CFC03A82E5D80760F4C2
:1017C000C03882E5D80708F459C0CF71D0E0DC2FCB
:1017D000CC27C46FD06AC4CFC03C82E5D80708F4D8
:1017E00062C0C03E82E5D80708F09CCFDC2FCC2732
:1017F000CC27DF71C06FD06AB3CFC55AD0E0C459CF
:10180000DE4FC881D0E0D064ABCFD065A9CF8D2F9B
:101810000E945D0A182FCE0199270E94AC0AC12FA1
:10182000D0E0DC2FCC27CC27DF71C82BD92B98CF69
:10183000CE0199270E94AC0ACC27DF70C82BD92B88
:10184000D06A8ECFCF71D0E0DC2FCC27C16FD06AA9
:1018500087CF2C2F26952695277080E2289F900110
:1018600011248C2F8370C1E0D0E002C0CC0FDD1FAB
:101870008A95E2F7C22BD32BDC6872CF2C2F2695EA
:101880002695277080E2289F900111248C2F837069
:10189000C1E0D0E002C0CC0FDD1F8A95E2F7C22B79
:1018A000D32BDA685DCF8C2F8F710E945D0AC82F11
:1018B000D0E0DC2FCC27CC27DF71D06251CF8C2F2A
:1018C0008F710E945D0A55E0D695C7955A95E1F74C
:1018D000CF70D0E0DC2FCC27282F30E084FF05C06C
:1018E00044E0220F331F4A95E1F7C22BD32BD06976
:1018F00037CF8D2F8F710E945D0A182FCE01992747
:101900000E94AC0AC12FD0E0DC2FCC27CC27DF719E
:10191000C82BD92BD2CF80959091F2039823909326
:10192000F20308958091790490914004981301C0C6
:1019300008958F5F8770FACFB0E0A0E0E2EAFCE0A4
:101940000C94612D7C010091F0031091F1038091C2
:10195000C7029091C802082B192BCFE0D0E0CC240D
:10196000C394D12CBC2EC6010C2E02C0880F991F27
:101970000A94E2F780239123892B49F4219790F769
:10198000B12C8B2DCDB7DEB7E9E00C947D2DB701DE
:101990008C2F0E944E0B0E946D0B019779F3F1CFB3
:1019A000CF93DF93EC010E949C0CBE010E944E0B72
:1019B0000E946D0BDF91CF910895983078F58630B5
:1019C00068F5E82FF0E086E0989FE00DF11D112406
:1019D0009E2F977083E0F695E7958A95E1F7EE0FD5
:1019E000FF1FEE0FFF1FE256FD4F50E040E080E08A
:1019F000219130E0092E02C0369527950A94E2F72E
:101A000021703327042E01C0220F0A94EAF7822B9B
:101A10004F5F5F4F4430510559F7089580E00895B6
:101A2000983098F5863088F5E82FF0E086E0989FAA
:101A3000E00DF11D11248E2F877041E001C0440F8D
:101A40008A95EAF783E0F695E7958A95E1F7EE0F38
:101A5000FF1FEE0FFF1FE256FD4F30E020E070E069
:101A60005191DF011197CB01022E02C09695879507
:101A70000A94E2F7817081958527842385278C93CA
:101A80002F5F3F4F2430310559F708959093F103AC
:101A90008093F003089521E030E002C0220F331F4D
:101AA0008A95E2F7209530958091F0039091F103AB
:101AB000822393230E94460D08959091BD02809544
:101AC00089238093BD02282F277069F4891759F064
:101AD00090911D0392FF07C08695869586950E947A
:101AE0004B0D1092BD02089521E030E002C0220F9C
:101AF000331F8A95E2F78091F0039091F103822BD6
:101B0000932B0E94460D08959093C8028093C702BC
:101B10000895FC0124812223C1F0808191810E94DB
:101B2000D00C92959F70963091F058F4925F9F7010
:101B3000923058F4803F19F030F4883E30F481E060
:101B400008959A5FF4CF843FD1F380E00895883EF2
:101B5000B0F3813FD1F7F3CFA6E0B0E0E2EBFDE0D8
:101B60000C94672D49835A8349815A819923A1F0A6
:101B7000222391F0CA010E949C0C182F682F8981A2
:101B80009A810E94100D69817A81812F0E944E0BEB
:101B90002696E3E00C94832DCA010E94DD0C182FD9
:101BA000F2CFCF93DF93C0918F06D09190068A3009
:101BB000C1F420918604CE0189589440622F70E0D0
:101BC0000E94442D281B822F66E00E948F2DC82F73
:101BD000C15018F4DF91CF91089580E20E94D10D99
:101BE000F7CF8D30E9F4C958D44020918604622F94
:101BF00070E0CE010E94442D281B822F9E01280FE9
:101C0000311D2115324018F080E0D0E0C0E0C80F4F
:101C1000D11DC757DB4FD0939006C0938F06DACF04
:101C200096E0FE01A9E8B6E001900D929A95E1F7E1
:101C3000803E08F458C086E0FE0111928A95E9F7CB
:101C4000C0918F06D091900646E050E0BE0189E831
:101C500096E00E94BE2D9E0129583440892B41F107
:101C6000C90145E0969587954A95E1F741E050E036
:101C7000BA0102C0660F771F8A95E2F7CB01609127
:101C8000870470918804862B972BB9016B5F7F4F77
:101C9000E5E076956795EA95E1F702C0440F551F98
:101CA0006A95E2F7842B952B9093880480938704A0
:101CB0002A5F3F4F40918604642F70E0C9010E9463
:101CC000442D481B463010F4240F311D211572E0BD
:101CD000370710F030E020E027573B4F3093900655
:101CE00020938F0677CFF6E08F9FB00111246453C5
:101CF000784F46E050E0CE010E94B52DA1CFCF93A2
:101D0000DF93EC01FE018491811103C0DF91CF913B
:101D100008950E94D10D2196F5CF8091F203909104
:101D2000C602892B809394029091F303992391F03A
:101D3000892B8093940220E086E992E0FC013191A6
:101D4000CF0131112F5FF2E08C399F07B9F72111D4
:101D50001092F30348E050E06EEB72E084E992E009
:101D60000E94BE2D892BA9F088E0E4E9F2E0AEEBF9
:101D7000B2E001900D928A95E1F7E0912004F09194
:101D80002104309731F00280F381E02D84E992E064
:101D900009950895882321F00E948B0C0E948D0ED6
:101DA0000895882339F09091F203982B9093F203D1
:101DB0000E948D0E08950F931F93CF93DF938B0195
:101DC000EA0190913604943061F58093E9008FEF39
:101DD0009091E800815095FD06C095ED9A95F1F738
:101DE00000008111F5CF8091E80085FF1AC00E94A4
:101DF0002007811111C08091E80085FD06C0809107
:101E0000E8008E778093E800F2CFF80181918F018E
:101E10008093F100219779F78091E8008E77809385
:101E2000E800DF91CF911F910F91089543E050E0BA
:101E3000BC0182E00E94DB0E089546E050E0BC0148
:101E400082E00E94DB0E0895CF93DF93EC0148E01F
:101E500050E0BC0181E00E94DB0E88E0FE01ACE2B4
:101E6000B4E001900D928A95E1F7DF91CF9108954A
:101E700081E08093E00080E28093D8001092C90056
:101E80008FE19EE40197F1F700C0000087E090EB3E
:101E9000DC018093910690939206A0939306B093F1
:101EA000940688E19CE00FB6F894A89580936000B2
:101EB0000FBE90936000FFCF80914D03882341F1C6
:101EC000539A3BB1377F2BB128604FB7F8948EE41B
:101ED00093E0FC015191CF0168E02BB9000000C0F4
:101EE00057FF3BB9550F000000C000C000C03BB910
:101EF00000C06A9591F7F3E0803F9F0751F74FBF0D
:101F00008FE594E00197F1F700C0000010924D03B7
:101F10000895B0E0A0E0EFE8FFE00C94602D7C01B4
:101F20005B016A0180910B0301E010E08A3010F43C
:101F30000AE010E0C1E0D0E0B501C701F601099563
:101F4000811104C021960C171D072CF4CDB7DEB704
:101F5000EAE00C947C2DCC9F9001CD9F300D300D8C
:101F6000112490E080E045E34A95F1F700000196E6
:101F700082179307C1F7E0CF8091D502811110C07D
:101F80008091D80080618093D8008AE18A95F1F72A
:101F900000C08091D90080FF0AC081E08093D50203
:101FA00081E09091D502913009F080E0089582E0BF
:101FB0008093D5020E94010710923604F1CF0E944F
:101FC000BC0F882359F0E0912004F0912104309750
:101FD00029F00190F081E02D0995089580E00895A1
:101FE0000F931F930E94BC0F882329F00E945E0864
:101FF0001F910F9108950E945E0800910C031091AB
:102000000D0320910E0330910F03600F711F821F8B
:10201000931FEECF0E94F00F0895B0E0A0E0E3E13F
:10202000F0E10C94622D6C017B0164E670E088E7BE
:102030000E94A22A8C01E601EC0CFD1C17FD0BC0CE
:10204000FE01849164E670E00E940E2B8C012196C3
:10205000CE15DF0599F70E94842B81E0011511054B
:1020600009F080E0CDB7DEB7E8E00C947E2D8091DA
:102070001A0490911D04911103C091E089270895DD
:10208000882369F062E070E080E593E00E940D1023
:10209000811103C080911A04089510921A0480914E
:1020A0001A04EBCFCF93C0911A0480911D048823AA
:1020B000D1F00E945E08605A75418F4F9F4F609328
:1020C0001604709317048093180490931904C11197
:1020D00008C062E070E08EE493E00E940D10811170
:1020E00005C0C0911A048C2FCF91089581E0809390
:1020F0001A04F7CFB0E0A0E0E0E8F0E10C945F2D27
:102100000E94F00F6093450370934603809347034A
:102110009093480330917E04D32FD37019F0D32FBE
:10212000D695D695209162012130D9F0222359F01D
:10213000223009F423C1233009F42AC1CDB7DEB718
:10214000EBE00C947B2D1092570160934903709340
:102150004A0380934B0390934C0381E08093620188
:10216000EDCF9091560181E0D9130BC0832F83707E
:102170002091550130E091E08217130609F490E0B8
:10218000892F817080935901809183049091580127
:10219000981739F08093580140E060E080E00E9499
:1021A0009F09DD2321F0D13069F080E042C08091A9
:1021B0005901882309F43DC040E060E080E00E94BE
:1021C0009F09F3CFB09057018BE0B89EB02C11243B
:1021D0001BE01B0D173308F016E30E940A0A882340
:1021E00019F01C3108F01BE10E940A0A811105C098
:1021F0002BE1B21610F4CBE1BC2E90907F044091FD
:102200008004E0918104F0E0E25BFD4F411127C0C2
:10221000F4900F2DCF2DCB2CD12CC11608F493C0E8
:102220000E940A0A882309F4A0C081E01B3108F04B
:10223000BCCF909157019F5F9093570181119AC035
:1022400082E08093620180915901811193C0DD2366
:1022500009F49CC00E940A0A0E940A0A6FCFE42E69
:10226000F12CC491AC2EEC2FF0E0A6E09A9EC001B8
:1022700011242FEF30E0B9010E94442D892D90E008
:10228000880F991F55E5569FD001579FB00D112417
:102290008A1B9B0B982E990C980ED901AE19BF0979
:1022A000AE9FC001AF9F900DBE9F900D1124092FCE
:1022B000499DA0011124452F5527D901A41BB50B19
:1022C000AE9F6001AF9FD00CBE9FD00C1124D901EE
:1022D000A919B109AE9DA001AF9D500DBE9D500D35
:1022E0001124452F5527241B350B2E9FA0012F9F0E
:1022F000500D3E9F500D1124F52E62307105A1F056
:1023000050F46115710509F486CF6130710581F0D3
:10231000F92E0D2D80CF6430710569F080F06630A4
:10232000710509F478CFF4CFFC2EC92F052F73CF98
:10233000FC2ECD2D70CFF92E0C2FC52F6CCFC92FB1
:102340000A2DFD2C68CFF601ED5AFD4F808190914A
:102350005801892331F0202F4F2D6C2FC6010E9488
:102360000E0ABFEFCB1ADB0A58CF81E0163308F410
:1023700060CF1BCFDD2309F4E1CE6CCFD0935601A3
:10238000832F8370809355010E945C0F83E0E6CE1B
:1023900080917D04882351F048E050E068E170E0CE
:1023A0008EE794E00E94F22D10927D04C0904903C4
:1023B000D0904A03E0904B03F0904C030E94BC0F76
:1023C0008823C1F02FB7F8946091250470912604FA
:1023D00080912704909128042FBF6C197D098E09E4
:1023E0009F09603171058105910508F4A7CE10920F
:1023F0006201A4CE0E94F00FF0CFEEE7F4E085E09A
:1024000080838091630190916401A0916501818333
:102410009283A3838FE784838FEF858348E050E026
:1024200068E170E0CF010E94F22D10927D040895C2
:1024300090911D0392FB222720F9281779F080FB49
:1024400092F990931D0360911C0370911D0384E029
:1024500090E00E94202E82E00E945D0D0895A4E08D
:10246000B0E0E5E3F2E10C94672D4091FF0250915A
:10247000000360910103709102032FB7F8948091DB
:10248000250490912604A0912704B09128042FBF21
:10249000841B950BA60BB70B11E084369105A105A3
:1024A000B10570F10E94F00F6E5F7F4F8F4F9F4F0D
:1024B00069837A838B839C838091290190912A017F
:1024C0008A519D4F4091280150E04530510510F050
:1024D00044E050E0BE016F5F7F4F0E94CB2D85E04E
:1024E00090E00E94CE2C182F882351F00E945E08A5
:1024F0006093FF02709300038093010390930203A3
:10250000812F2496E3E00C94832D4F925F926F927B
:102510007F928F929F92AF92BF92EF92FF920F9312
:102520001F93CF93DF937B01FB014080518062803A
:1025300073809FB7F8948090250490902604A09013
:102540002704B09028049FBF84189508A608B708F0
:10255000F4E68F169104A104B10418F4C1E04423F9
:1025600029F1C82F880FDD0BFE0183E0EE0FFF1F5E
:102570008A95E1F7E050FF4F818192818A519D4F0A
:10258000408150E00417150708F4A801B9010E9422
:10259000CB2DCE010E94CE2CC82F882339F00E946B
:1025A0005E08F70160837183828393838C2FDF91B0
:1025B000CF911F910F91FF90EF90BF90AF909F90A0
:1025C0008F907F906F905F904F900895A1E0B0E062
:1025D000ECEEF2E10C94662D80911A04898320912F
:1025E000FE0290E041E02817190609F440E001E0FE
:1025F00010E09E012F5F3F4F67E073E087E00E948D
:1026000085122196E4E00C94822DA9E0B0E0EBE085
:10261000F3E10C94662D88E0EEE7F4E0DE0111961C
:1026200001900D928A95E1F7198649E050E065EF37
:1026300072E0CE0101960E94BE2D41E0892B09F483
:1026400040E009E010E09E012F5F3F4F63E073E040
:1026500086E00E9485122996E4E00C94822D0F9367
:102660001F93CF93DF93EC0144E050E06BEE72E0F8
:102670000E94BE2D41E0892B09F440E004E010E007
:102680009E016EED72E082E00E948512DF91CF9193
:102690001F910F9108954F925F927F928F929F9218
:1026A000AF92BF92CF92DF92EF92FF920F931F9360
:1026B000CF93DF930F92CDB7DEB7C62E4A015901F3
:1026C000482E880F5508C2010E94CE2C782E8823F0
:1026D00009F480C0C20133E0880F991F3A95E1F7F1
:1026E000FC01E050FF4F438150E04115510511F0CE
:1026F00041E050E080509F4FFC01648175816A5138
:102700007D4FCE0101960E94CB2DF4014081518175
:10271000628173812FB7F8948091250490912604EB
:10272000A0912704B09128042FBF841B950BA60B02
:10273000B70B84369105A105B10540F4B701C80176
:102740000E940E099981891709F444C00C2C000CD1
:10275000DD08C6010E94CE2C782E811113C0712C89
:10276000872D0F90DF91CF911F910F91FF90EF90E8
:10277000DF90CF90BF90AF909F908F907F905F90B1
:102780004F900895C60123E0880F991F2A95E1F71D
:10279000FC01E050FF4F438150E0E416F50608F4D9
:1027A000A70180509F4FFC01648175816A517D4F64
:1027B000C5010E94CB2DB701C8010E940E09998165
:1027C0008913CDCF0E945E08F401608371838283F8
:1027D0009383C6CFA701B801C5010E94CB2DC0CFFE
:1027E000A4E0B0E0E6EFF3E10C94622D6B0184E02D
:1027F000E82EF12C07EE12E09E012F5F3F4F4AEDCD
:1028000052E061E080E00E944B13882361F049812F
:102810005A816B817C814093D6025093D70260939A
:10282000D8027093D9024091D6025091D70260919C
:10283000D8027091D902F601408351836283738379
:102840002496E8E00C947E2DA8E0B0E0EAE2F4E102
:102850000C94682D66EE7EEF90E080E00E94202EC2
:1028600060E082E090E00E94022E60E083E090E071
:102870000E94022E1092C8021092C70260E074E11A
:1028800084E090E00E94202E60E086E090E00E94CC
:10289000022E6FEF87E090E00E94022E40E050E0B1
:1028A000BA0188E090E00E94142E60E084E290E09B
:1028B0000E94022E60E087E190E00E94022E60E01C
:1028C0008CE090E00E94022E60E08DE090E00E949B
:1028D000022E19821A821B821C821D821E821F8276
:1028E000188648E050E068E170E0CE0101960E9451
:1028F000F22D40E050E0BA0180E290E00E94142EF8
:1029000040E050E0BA018FE090E00E94142E40E0D9
:1029100050E0BA0183E190E00E94142E2896E2E094
:102920000C94842D1F920F920FB60F9211242F93A7
:102930003F934F935F936F937F938F939F93AF9347
:10294000BF93EF93FF938091E10082FF09C08091D4
:10295000E20082FF05C08091E1008B7F8093E1005F
:102960008091DA0080FF24C08091D80080FF20C0D1
:102970008091DA008E7F8093DA008091D90080FF09
:102980009DC080E189BD82E189BD09B400FEFDCF13
:1029900081E08093360480912904811109C00E944E
:1029A00001070E94A2078091E20084608093E20008
:1029B0008091E10080FF17C08091E20080FF13C08A
:1029C0008091E2008E7F8093E2008091E20080613E
:1029D0008093E2008091D80080628093D80019BC77
:1029E00085E0809336048091E10084FF2BC08091C4
:1029F000E20084FF27C080E189BD82E189BD89B5FD
:102A0000982F917080FFFBCF8091D8008F7D8093AD
:102A1000D8008091E1008F7E8093E1008091E200F8
:102A20008F7E8093E2008091E20081608093E200DB
:102A300080913704882309F447C084E080933604EA
:102A4000809136048091E10083FF27C08091E200ED
:102A500083FF23C08091E100877F8093E10082E0C3
:102A600080933604109237048091E1008E7F80932A
:102A7000E1008091E2008E7F8093E2008091E2008D
:102A800080618093E20042E060E080E00E94700795
:102A90008091F00088608093F000FF91EF91BF91EA
:102AA000AF919F918F917F916F915F914F913F91E6
:102AB0002F910F900FBE0F901F90189519BC109278
:102AC00036041092290474CF8091E30087FD93E0CF
:102AD00090933604B5CF78941F921FB61F9211249D
:102AE0008F939F93AF93BF93809125049091260479
:102AF000A0912704B09128040196A11DB11D8093D7
:102B0000250490932604A0932704B0932804BF9132
:102B1000AF919F918F911F901FBE1F9018959C01A0
:102B20004FB7F8948091250490912604A091270432
:102B3000B09128044FBF821B930B08952FB7F894D0
:102B40008091250490912604A0912704B091280437
:102B50002FBF08952F923F925F926F927F928F9234
:102B60009F92AF92BF92CF92DF92EF92FF920F931C
:102B70001F93CF93DF9380911D04882309F427C10D
:102B800080911B0490911C040E948F15C29708F439
:102B9000FFC00E949E1590931C0480931B0489E83B
:102BA00094E09093900680938F060E94BC0F882338
:102BB00009F424C160E870E082E593E00E94CE0849
:102BC0008091860424E0829FC0011124811562E077
:102BD000960714F090E080E087579B4F9093900603
:102BE00080938F0682ED93E00E947F0E88E194E04F
:102BF0000E947F0E8091F0039091F1030097F1F114
:102C000081FF35C088E094E00E947F0E88E194E067
:102C10000E947F0EC091F3038091F203C82BDC2F3A
:102C2000D878C474DD2381F181E494E00E947F0EA2
:102C30008AE394E0CC2381F18CE394E00E947F0E40
:102C400083E394E0C11102C080E394E00E947F0E10
:102C5000DD2341F18DE294E00E947F0E88E294E052
:102C60000E947F0EC11128C08EE194E027C082FF30
:102C700003C088EF93E0C8CF80FF03C088EE93E0E5
:102C8000C3CF88ED93E0C0CF8EE394E00E947F0E27
:102C9000C11105C086E394E00E947F0ED5CF88E382
:102CA00094E0CCCF8AE294E00E947F0ECC2389F19D
:102CB00086E294E00E947F0E81E294E00E947F0E03
:102CC000C091F3038091F203C82BDC2FD171C27243
:102CD000DD2321F187E694E00E947F0E80E694E0F8
:102CE000CC2321F182E694E00E947F0E89E594E0F6
:102CF0000E947F0EDD2311F183E594E00E947F0E98
:102D00008EE494E00E947F0EC11123C084E494E01D
:102D100022C084E294E00E947F0EA6CF84E694E075
:102D20000E947F0EC11107C08CE594E00E947F0EC7
:102D300086E594E0DDCF8EE594E0D6CF80E594E0A3
:102D40000E947F0ECC2309F454C08CE494E00E94CE
:102D50007F0E87E494E00E947F0E0E94DF0FC82F51
:102D600086E794E0C0FF02C089E794E00E947F0EEE
:102D700080E794E0C1FF02C083E794E00E947F0EE9
:102D80008AE694E0C2FF02C08DE694E00E947F0EC6
:102D90008091870490918804892BB9F580911A0459
:102DA0008823A9F00E945E08009116041091170470
:102DB0002091180430911904601B710B820B930B46
:102DC0006F3F7F4F8F4F9F4710F40E943710DF9166
:102DD000CF911F910F91FF90EF90DF90CF90BF9018
:102DE000AF909F908F907F906F905F903F902F90CB
:102DF00008958AE494E00E947F0E88CF60E072E03C
:102E00008CE794E00E94CE08C3CF80911D048823F4
:102E100029F2809115048111C1CF0E945210209196
:102E20008704309188042115310509F4B7CF80E07B
:102E300041E050E0082F10E01A01082E02C0220CD9
:102E4000331C0A94E2F7B10162237323672B11F458
:102E50008F5FF0CF9091140490FF95C0880F880F7A
:102E6000880F80935C0110925F01895F80935D0100
:102E700083E08093600124E630E047E050E06AE5BB
:102E800071E088E70E943C2B892B09F087CFA801CD
:102E900025E0440F551F2A95E1F78091140480FF27
:102EA00084C0E4EFF3E080E2DF011D928A95E9F748
:102EB000ADE8B2E009E812E081E9C82E82E0D82E40
:102EC00097E0592E772473948D91E80129918E0112
:102ED000240F352F311D27573B4FE82FF0E0EC50E2
:102EE000FC4F90E080E0652C681A872C082E01C00A
:102EF000880C0A94EAF77901A12CE701B9907E01C8
:102F0000B820662D6A196770962E062E000C770B76
:102F1000DB2D01C0DD0F9A94EAF771956195710977
:102F20006770772701C0B6946A95EAF7BD2A608179
:102F3000962E9B289082A39468E0A612DECF01967D
:102F400031968830910579F6CA16DB0609F0BCCFB8
:102F500004E610E020E230E044EF53E060E488E76C
:102F60000E945D2B892B09F019CFE101C095D09506
:102F70008091870490918804C823D923D093880432
:102F8000C09387040BCF8295880F807680935C0175
:102F90009801369527953695279520935F01815E98
:102FA00080935D012093600166CF47575B4F04E635
:102FB00010E020E230E0D2CF0E949E159C0190915B
:102FC000410380914203982B21F030933E032093DC
:102FD0003D039091430380914403982B21F030935B
:102FE0003C0320933B03E0912004F09121043097AF
:102FF00049F082E080933F030480F581E02D8FE368
:1030000093E009950895CF931092F203C6E0E6E9A4
:10301000F2E0DF018C2F1D928A95E9F790E080E0C5
:103020000E94A90890E080E00E9484081092C602E5
:103030000E948D0EEFE3F3E0DF011D92CA95E9F7E0
:10304000109238031092390310923A030E94DC1751
:10305000CF910895AAE2B0E0E0E3F8E10C94672D87
:1030600088E394E02091F100FC012193CF01F4E08A
:1030700080349F07B9F780913904833009F470C018
:10308000B8F4813009F447C0823009F4B1C08091AE
:10309000E80083FF7EC280913804909139049A3011
:1030A00008F077C2E92FF0E0E85DF14D0C94AF2D08
:1030B0008A3009F48CC08B3009F46FC0893039F73D
:1030C00080913804813219F780913C0490913D043D
:1030D0000297E8F68091E800877F8093E80080916E
:1030E000E80082FF38C09091F3008091F2000297CF
:1030F00031F48091F100813011F0863021F480911B
:10310000F10080932B048091E8008B778093E80096
:103110000E945107BCCF80913804813A09F0B7CFA3
:103120008091E800877F8093E80080913C04909133
:103130003D04892B61F468E08CE294E070E00E9429
:10314000FD078091E8008B778093E800A0CF60E0D6
:1031500090E080E0F3CF809136048111C0CF97CF0B
:1031600080913804813A09F092CF80913C0490918B
:103170003D04892B09F08BCF8091E800877F8093F5
:10318000E8008091E80080FFFCCF8091610180938E
:10319000F1008091E8008E77B9CF809138048132B8
:1031A00009F075CF80913C0490913D04892B09F082
:1031B0006ECF8091E800877F8093E8000E945107DE
:1031C00080913A04809361010E94031860CF80913E
:1031D0003804813209F05BCF8091E800877F8093CB
:1031E000E8000E94510780913B0480932A044FCF4E
:1031F00080913804813A09F04ACF8091E800877FB6
:103200008093E8008091E80080FFFCCF80912A0441
:10321000BECF803899F0823809F0BBC180913C0460
:103220008F70873008F0B5C18093E9008091EB0082
:1032300085FB882780F91092E90006C0809134044C
:1032400090913504911182609091E800977F90935E
:10325000E8008093F1001092F1008091E8008E77F1
:1032600094C1882309F482C1823009F092C180910F
:103270003A04811185C180913C048F702FEF280F93
:10328000263008F086C18093E9002091EB0020FFF2
:1032900077C1933031F48091EB0080628093EB0032
:1032A0006FC19091EB0090619093EB0021E030E0D2
:1032B00001C0220F8A95EAF72093EA001092EA00F3
:1032C0008091EB008860EACF811163C110913A04CC
:1032D0001F778091E3008078812B8093E3008091B9
:1032E000E800877F8093E8000E9451078091E80002
:1032F00080FFFCCF8091E30080688093E30082E050
:10330000111183E08093360444C18058823008F064
:1033100040C180913A0490913B048C3D23E0920798
:10332000A1F583E08A838AE289834FB7F894DE01AE
:10333000139620E03EE051E2E32FF0E05093570077
:10334000E49120FF03C0E295EF703F5FEF708E2F96
:1033500090E0EA30C0F0C7968D939D932F5F2431A3
:1033600059F74FBF8091E800877F8093E8006AE2B9
:1033700070E0CE0101960E94FD078091E8008B77F6
:103380008093E80006C1C096E7CF40913C0450917D
:103390003D04292F33272330310509F444C078F543
:1033A0002130310509F46FC08BE390E0EBE3F7E0E7
:1033B0002230310509F0EDC02091E800277F2093ED
:1033C000E80020913E0430913F048217930708F4EF
:1033D0009C0140E02115310509F064C0411162C033
:1033E0008091E80082FDC9CF80913604882329F2BC
:1033F000853019F28091E80083FFF2CFBECF2132F1
:103400003105A9F12232310509F0C3C0411551053A
:1034100009F443C04130510509F0BBC08BE790E08F
:10342000ECE7F6E0C9CF992781309105C1F000970C
:1034300059F0029709F0ADC0E8E8F7E0E4918E2F6B
:1034400090E0E8E8F7E007C0E8ECF7E0E4918E2FC1
:1034500090E0E8ECF7E0009709F49BC0ADCFEEEA0E
:10346000F7E0E4918E2F90E0EEEAF7E0F4CF41151B
:10347000510571F04130510509F08BC089E090E0B1
:10348000E6E6F7E099CF82E190E0E6E7F7E094CF57
:1034900089E090E0EDE4F7E08FCF84E490E0E7EF9F
:1034A000F6E08ACF80913604882309F466CF853010
:1034B00009F463CF8091E80083FD5FCF8091E8003D
:1034C00082FD8ECF8091E80080FF84CF9091F30041
:1034D0008091F2002115310519F08830910550F0E6
:1034E00041E0089709F040E08091E8008E778093F2
:1034F000E80070CF44914093F1003196215031099A
:103500000196E8CF803809F044C08091E800877FB9
:103510008093E800809137048093F1009ECE811162
:1035200038C010913A041230A0F58091E800877FEE
:103530008093E800109337040E945107112311F083
:1035400084E005C08091E30087FDFACF81E080939D
:10355000360442E061EC81E00E94700742E261ECD7
:1035600082E00E9470078091360413C080913A0473
:10357000813079F481E0933009F080E08093350464
:103580001092E9008091E800877F8093E8000E9414
:1035900051078091E80083FF0AC08091E800877F8F
:1035A0008093E8008091EB0080628093EB00AA9604
:1035B000E3E00C94832D1F920F920FB60F9211240B
:1035C0002F933F934F935F936F937F938F939F932B
:1035D000AF93BF93CF93DF93EF93FF93D091E90025
:1035E000DF708091EC00C82FC17080FDC0E81092A0
:1035F000E9008091F000877F8093F00078940E942A
:103600002A181092E9008091F00088608093F00001
:10361000CD2BCF70C093E900FF91EF91DF91CF9157
:10362000BF91AF919F918F917F916F915F914F91DA
:103630003F912F910F900FBE0F901F9018950E94F1
:1036400003182FEF84E39CE0215080409040E1F785
:1036500000C0000088E19CE00FB6F894A895809324
:1036600060000FBE90936000FFCF662309F45DC039
:103670008D3C41F40E94DA098195809342030E94B7
:10368000DC1708958E3C19F40E94DA09F6CF8F3CBE
:1036900031F40E94DA09819580934103F0CF803D97
:1036A00019F40E94DA09F8CF893D29F40E94B8097B
:1036B00080934303E4CF8A3D21F40E94B8098195A9
:1036C000F7CF8B3D31F40E94B80981958093440374
:1036D000D6CF8C3D19F40E94B809F8CF9FE2980F1D
:1036E000983070F4815D990B21E030E001C0220F29
:1036F0008A95EAF780914003822B80934003BFCFE5
:103700008D3D31F480913A03816080933A03B7CFC5
:103710008E3D21F480913A038260F7CF8F3D09F00E
:10372000AECF80913A038460F0CF409141038D3C4D
:1037300059F48091420387FF0DC01092420341115A
:103740000BC01092380308C08E3C81F48091420374
:1037500018169CF3442381F0809143039091440315
:10376000892B09F08CCF1092390389CF8F3C49F413
:1037700047FFF0CF10924103809142038111ECCFBB
:10378000E0CF803D19F41416ACF3E4CF90914303DD
:10379000893D29F41916F4F610924303DBCF8A3DD4
:1037A00019F497FFD7CFF8CF909144038B3D29F4BC
:1037B00097FFD0CF10924403CDCF8C3D19F419164A
:1037C000CCF3C8CF9FE2980F983090F4815D990BAD
:1037D00021E030E0B90102C0660F771F8A95E2F759
:1037E000CB01809590914003892380934003B2CF11
:1037F0008D3D31F480913A038E7F80933A03AACFB6
:103800008E3D21F480913A038D7FF7CF8F3D09F0F3
:10381000A1CF80913A038B7FF0CF8823D1F19CEF29
:10382000980F913A78F4E6E9F2E09191891303C098
:10383000DF0111971C9292E0EC39F907B1F70E9471
:103840008D0E089590E2980F983050F4877091E0B3
:1038500001C0990F8A95EAF7892F0E948B0CEFCF50
:103860009BE5980F933028F490E080E00E94A9082F
:10387000089598E5980F9B3128F490E080E00E942D
:103880008408089593E3980F933118F460E00E9440
:10389000351B0895CF93C82F8823B1F08CEF8C0F80
:1038A000813A00F5E6E9F2E08CE992E0DF012D9142
:1038B000C21761F08A179B07D1F76C2F84E992E059
:1038C0000E946A080E948D0ECF9108952191C21323
:1038D00003C0DF0111971C928E179F07B9F70E9452
:1038E0008D0EEBCF80E28C0F883068F4C77021E03A
:1038F00030E001C0220FCA95EAF78091F203822BD3
:103900008093F203DFCFEBE5EC0FE33040F4F0E01F
:10391000E459FE4F808190E00E94A908D5CFE8E5E8
:10392000EC0FEB3150F4F0E0EE0FFF1FE159FE4FCA
:10393000808191810E948408C7CF83E38C0F8331FB
:1039400018F661E08C2F0E94351BBECF1F93CF93DA
:10395000DF93182FEB010E944A1C209739F4812F26
:103960000E940D1CDF91CF911F9108958FE99FE078
:103970000197F1F700C000002197EFCF0F931F933D
:10398000CF93DF93C62FD42F022FFC01858188238C
:10399000A9F060937C040E949E1590937B04809311
:1039A0007A04C77081E001C0880FCA95EAF70E94C7
:1039B000D10EDF91CF911F910F91089580917C04DA
:1039C000681334C080917A0490917B040E948F1513
:1039D000883C910558F510E21D0FCD17B9F080E233
:1039E0008C0F883040F4C77081E001C0880FCA9501
:1039F000EAF70E94CA0E183048F481E09D2F9770B4
:103A000001C0880F9A95EAF70E94D10E70E060E03D
:103A1000802F0E94A61C183060F6D77081E001C08C
:103A2000880FDA95EAF70E94CA0EC3CFC77081E00B
:103A300001C0880FCA95EAF7F6CF81110CC070E07B
:103A4000662331F060E089EA0E94A61C81E00895B7
:103A500060E08AEAF9CF8130C9F770E0662319F097
:103A600060E08EE4F1CF60E08BE4EECFA1E0B0E067
:103A7000ECE3FDE10C94612DEE24E394F12C00EFD6
:103A800012E09E012F5F3F4F42EE52E064E083E080
:103A90000E944B13C82E882339F100E080E01DC03E
:103AA000D0901103D00E2D2D30E0A901415D5C4F67
:103AB0007A01E1E0F0E0EC0FFD1FE00FF11D108155
:103AC000FA019081191BB12E1B149CF0912F17FD48
:103AD00090E0191B111118C00F5F90911003091786
:103AE000F8F281110E940A108C2D2196E9E00C94C5
:103AF0007D2DBA94F70180818F5F808360E08D2DEA
:103B00000E941D1D8C2DE0CF1F5FF7018081815029
:103B1000808361E08D2D0E941D1D8C2DDBCFB0E0D8
:103B2000A0E0E5E9FDE10C94602D8C01FC018481AD
:103B3000882341F121E04081518162817381958127
:103B40000E94AC0DEC01FC01E851FC47E730F105A7
:103B5000A8F5EE5CF14D0C94AF2D26E241EE61EE3E
:103B6000C8010E94BE1C8091BD02877059F0F80107
:103B70008581882339F080911D0382FF03C082E094
:103B80000E945D0DCDB7DEB7EAE00C947C2D27E2F4
:103B900045EE65EEE5CF26E241EE60EEE1CF27E2AD
:103BA00045EE64EEDDCF26E241EE62EED9CF27E2AC
:103BB00045EE66EED5CF28E241E0EBCFF8018581F6
:103BC000882309F4CEC310927C04CE0190578397CA
:103BD00008F0B1C384E090E00E94EC2D90931D03A7
:103BE00080931C03FE01E150F047E232F10520F41E
:103BF000E75CF14D0C94AF2D80911C0381608093A4
:103C00001C0395C080911D03886080931D038FC0A5
:103C100080911C038260F3CF80911C038460EFCFFE
:103C200080911C038860EBCF80911D038160EDCFF4
:103C300080911D038260E9CF80911C038061DFCFFA
:103C400080911C038062DBCF80911C038064D7CFFE
:103C50000E94031880911C038068D1CF80911C03BF
:103C60008C60CDCF80911D038360CFCF80911C03EA
:103C70008E7FC5CF80911D03877FC7CF80911C03A6
:103C80008D7FBDCF80911C038B7FB9CF80911C03AA
:103C9000877FB5CF80911D038E7FB7CF80911D03A5
:103CA0008D7FB3CF80911C038F7EA9CF80911C03A1
:103CB0008F7DA5CF80911C038F7BA1CF0E9403181D
:103CC00080911C038F779BCF80911C03837F97CFBC
:103CD00080911D038C7F99CF80911C0382FB9927D3
:103CE00090F921E0922790FB82F990FB83F987CF2E
:103CF00080911D03982F909591708E7F892B90FB5A
:103D000081F983CF90911C03892F8F7B96FF80646C
:103D100076CF0E94031890911C03892F97FB87F997
:103D200080586DCF61E08EE090E00E94022E60919D
:103D30001C0370911D0384E090E00E94202E0E94DD
:103D4000031811CF60E0EFCF90911C03892F8F7E75
:103D500094FF806154CF90911C03892F8E7F90FF38
:103D600081604DCF90911D03892F877F93FF8860DD
:103D70004CCF80919C0281110FC089E2E6E9F2E00C
:103D80002CE932E09191891303C0DF0111971C9255
:103D90002E173F07B9F7E2C285E3F0CF80917E048A
:103DA00091E0892780937E041092620180917D04C6
:103DB000816080937D04D7CE41E959E06BE979E0D9
:103DC0000E942409D0CE4BE959E061E979E0F8CFAF
:103DD0004DE759E067E879E0F3CF47E859E06DE750
:103DE00079E0EECF43E659E060E779E0E9CF40E7DC
:103DF00059E063E679E0E4CF49E459E066E579E02B
:103E0000DFCF46E559E069E479E0DACF4DE259E0E9
:103E10006BE379E0D5CF4BE359E06DE279E0D0CFA9
:103E200081E00E94C0069FCE0E940318FFEF24E3AA
:103E30003CE0F15020403040E1F700C000000E941B
:103E4000380F6FEF7FEF90E080E00E94202E0E94FD
:103E50001F1B80911D0382FB882780F991E0892731
:103E60000E941812F8018581C081D181882309F44C
:103E70004AC0CE010E949C0CF82E682FCE010E94F1
:103E8000100DBE018F2D0E944E0B0E946D0BD82F7E
:103E9000C92FA82EF801C580B680B2943FE0B322A6
:103EA0008091BD028770F1F0EC2CCC20E1F0892FDD
:103EB000807F803451F080E28D0F883098F0B1100F
:103EC00004C0892F807E803269F080911D0382FFBB
:103ED00009C082E00E945D0D8091BD028770EE24D2
:103EE000E3948111E12CDC2ED2942FE0D222FBE06E
:103EF000FD1508F46DC0ED2DF0E0E55AF14D0C9480
:103F0000AF2D80E0ADCFCE010E94DD0CF82EB9CFF1
:103F10002C2F2F70F22EC07F19F0F29490EFF9221F
:103F2000CC20B9F0FF2069F080E28D0F883010F0CE
:103F3000A11009C08091F203F82AF092F2030E94C6
:103F40008D0E8D2F43C08091C602F82AF092C602D2
:103F5000F6CF8D2F0E940D1CFF20D1F1D05ED830FE
:103F600010F0A11004C08F2D0E948B0C06C0F0949D
:103F70008091C602F822F092C6020E948D0E28C0DF
:103F80003C2F3F70F32EC07FC03219F0F29480EFC7
:103F9000F822AA2059F081E0A81609F479C0CC20B3
:103FA00009F485C0BB2009F447C0CBCF80911D0325
:103FB00082FD3EC0CC20B1F1FF2039F08091F203A8
:103FC000F82AF092F2030E948D0E80E00E944A1CB3
:103FD0002D2D2850330B2430310510F40E94DF0FB3
:103FE000EE20A9F08091BD0280FD11C0F80115827C
:103FF0008695869586950E94740DC8010E948F1D36
:104000008091BD028695869586950E944B0D20E095
:10401000F8014081518162817381848195810E9480
:10402000AC0DB0CD80E00E940D1CFF2089F29BCF2B
:10403000CC20A1F0B11004C08F2D0E94D10EC8CFAA
:1040400091E0B912C5CF8091F3039F2D9823F91603
:1040500009F4BECFF82AF092F303BACFB110B8CF6B
:104060008F2D0E94CA0E9091F3038F2D892329F082
:104070008F2D809589238093F30380919D029F2D3E
:10408000982309F4A5CFF094F822F0929D02A0CFD6
:10409000CC2029F0E5E0EB1508F49ACFCDCFF4E081
:1040A000FB1508F495CF8F2D0E94CA0E91CFBB202F
:1040B000D1F329E3A21209C03FEF87EE93E031501C
:1040C00080409040E1F700C000008D2F0E940D1C41
:1040D0007FCF8C2F86958695837069F0813009F0AB
:1040E00077CF8D2F9C2F9370C11002C080E090E09D
:1040F0000E9484086DCF8D2F9C2F9370C11002C039
:1041000080E090E00E94A90863CF6C2D8D2F0E9463
:10411000351B5ECF8C2F837009F03FC0C11058CF84
:104120004D2F429546954770440F440F2D2F2F7009
:1041300030E0042E02C0220F331F0A94E2F790E011
:1041400080E0D4FF09C08FE090E002C0880F991F83
:104150004A95E2F780959095C695C695C370C23092
:1041600099F078F44091C7025091C802C13039F0FB
:10417000822B932B842395230E94840D29CF242BFB
:10418000352B822B932BF8CF822B932B2091C702B8
:104190003091C80282279327EFCF8695CC2011F06B
:1041A0008C2F8170882309F413CF4D2F42954695AB
:1041B0004770440F440F2D2F2F7030E0042E02C0A3
:1041C000220F331F0A94E2F790E080E0D4FF09C089
:1041D0008FE090E002C0880F991F4A95E2F7809522
:1041E0009095C695C695C370C23099F078F4409109
:1041F000F0035091F103C13039F0822B932B8423CB
:1042000095230E94460DE4CE242B352B822B932B35
:10421000F8CF822B932B2091F0033091F10382276A
:104220009327EFCFCF70CC2029F08C2F0E94740DF4
:104230008D2F03CF8D2F0E94CA0E8C2F0E944B0D05
:10424000C7CE8D2FE2EFAE1699F1EA1570F0F0EFC0
:10425000AF16D1F021EFA21691F0CC2009F45BC08B
:10426000B1106FCE8C2F8F7127C033EFA31639F1A9
:1042700094EFA912F2CF80911D0382FD2EC08C2FE6
:104280008F71CC20D9F218C0CC2069F0E4E0EB1596
:1042900008F49ECECF7181E090E002C0880F991F94
:1042A000CA95E2F7B8CFF5E0FB1508F491CEF2CF4E
:1042B0008C2F8F71C110C2CF0E94740D89CE90E0F7
:1042C00080E0CC2009F49DCFCF7181E090E002C066
:1042D000880F991FCA95E2F794CFCC2089F0CF714F
:1042E0008C2F0E94740D80911D0382FF07C028E06F
:1042F000C29FC001112483608093BD028C2FDCCF4C
:1043000081E00E945D0D31E03B1508F061CE82E056
:104310000E945D0D5DCEBB2059F0893309F0D5CEEA
:104320008FEF97EEE3E081509040E040E1F7CBCE95
:104330008C2F8F7183CFC631FCE7DF0729F5809181
:10434000F2038A7A91E009F490E090939C0269E28A
:10435000811165E384E992E00E946A080E948D0E53
:1043600002CCC6312CE7D20709F403CD8091F203C9
:104370008272FE01E052F847E531F10508F072CD96
:10438000E959F14D0C94AF2DC3303CE7D30709F444
:1043900058CD50F4C1159CE7D90709F445CDC1307B
:1043A000DC4709F454CD5ECDCB35FCE7DF0709F4DB
:1043B000A8CDCC352CE7D20709F44BCDCA35DC4764
:1043C00009F050CD81E04CCDCF93DF938091BC02BA
:1043D000807F09F04DC08091BB02882309F448C05A
:1043E000E091790450914004C091B702D091B60297
:1043F0006091B8027091B90247E05E17C9F18E2F43
:1044000090E0E49FF0011124EF5BFB4F2481222315
:1044100091F1489FF001499FF00D1124DF01AF5B3E
:10442000BB4F11962C9111972C1325C02C912D1355
:1044300022C015962C91159721111DC012962D9111
:104440003C91261B370B283C3105A8F48091BC0217
:104450008F7080618093BC02E95BFB4F80818F701D
:104460008061808386EB92E00E948F1D0E94920CF7
:10447000DF91CF910895FC013196E770BECFA4E1A2
:10448000B0E0E5E4F2E20C945E2D8C0186E0F801E8
:10449000DE011F9601900D928A95E1F7F801848163
:1044A000E58096EBA92E92E0B92E9091BA02911177
:1044B00028C0882319F1EE20F1F0C8010E94890D6F
:1044C000F82E8823C1F087E0F801D50101900D9204
:1044D0008A95E1F78091BA02813031F48091B60279
:1044E0009091B7020E94D00C0E94E4218F2D649617
:1044F000ECE00C947A2DC8010E948F1DFF24F394E8
:10450000F5CFD080C18082809380F090BB02209153
:10451000B8023091B902A401421B530BFF2009F4E9
:10452000D9C0483C510508F092C08823F9F2909117
:10453000B7028091BC02282F207F09F056C0C91213
:1045400014C09091B602D91210C0E11048C08F700B
:1045500080618093BC0286EB92E00E948F1D809167
:10456000BC02F8018683F12CC1CFE11038C06C2D5C
:104570008D2D0E94CF066C2D8D2D0E94CF06E82E2A
:104580008111F1CFDF86C88A8F8598890E94D00C6F
:10459000292F22952F70243058F49F70223088F0F4
:1045A000992399F0F8019681907F79F4FE2C9ECFA3
:1045B0002A5F2F70223068F0C8010E948F1DEF2CF7
:1045C000F5CF992311F0882389F3805E883070F34A
:1045D000F3CF803F58F3815F833070F7E7CF80914E
:1045E000BC0281608093BC02BECFC91207C090910B
:1045F000B602D91203C0EE2009F48DC0C8010E9492
:10460000890D882309F477CFEE2009F474CF8091C7
:10461000BC02803288F02091B6023091B70239870F
:1046200028879B868A869091BA029C871D868E87F2
:10463000CE0108960E948F1D87E0F801A6EBB2E03C
:1046400001900D928A95E1F70E94E42157CF909155
:10465000BC02292F207F51F486EB92E00E948F1D2F
:1046600087E0F50111928A95E9F77DCF882309F457
:104670003DCF8091B7028C1110C08091B602D81244
:104680000CC0E1100AC09683C8010E948F1D87E00C
:10469000F50111928A95E9F729CFC8010E94890D89
:1046A000882309F428CFEE2009F425CF8091BC029D
:1046B000803210F22091B6023091B7023A832983FA
:1046C0009C828B829091BA029D831E828F83CE0141
:1046D0000196B0CF483C5105D0F6882309F40ECF9F
:1046E000FE2CEE2009F407CF8091B7028C1120C078
:1046F0008091B602D8121CC08091BC0280FD0FC010
:10470000982F907F61F08683903F31F0982F907FB3
:10471000905F8F70892B8683C8010E948F1D87E070
:10472000F801A6EBB2E001900D928A95E1F7DECE9A
:10473000C8010E94890D81117FCF8091BC028160E8
:104740008093BC02C8010E948F1DD0CEABE1B0E0C7
:10475000ECEAF3E20C94662D4E8B5F8B688F798FB9
:104760008A8F9B8F192F91111092C6021D8A86E0A5
:10477000FE017696DE011F9601900D928A95E1F773
:104780000A8D002341F021E04F85588969897A8993
:10479000C8010E94AC0D0B8B1C8B87E0FE013F967D
:1047A000DE01189601900D928A95E1F7CE010896E8
:1047B0000E943F2281110CC087E0FE013896DE0185
:1047C000119601900D928A95E1F78C8581110BC0AD
:1047D00017E08091790490914004891331C06B9661
:1047E000E4E00C94822D2091400430E0C901019650
:1047F00087709927409179044817190699F097E036
:10480000929FD001939FB00D1124AF5BBB4FFE016F
:10481000319601900D929A95E1F7809340040E94A1
:10482000920CD6CF0E940318109240041092790483
:1048300087E0E6EBF2E0DF011D928A95E9F7C8CF49
:10484000819FC00111248F5B9B4F0E943F228823D0
:1048500031F28091790490E00196877099278093D6
:104860007904B7CFACE0B0E0E8E3F4E20C945F2D5C
:104870008E010F5F1F4F88E0D8011D928A95E9F7DE
:1048800080E4E82E81E0F82E99249394CC24C394FC
:10489000D12C2AE4A22E21E0B22EF70181917F01D2
:1048A0008F3F09F443C0F894E82FE295EF70F0E0F1
:1048B00021A18F70A60102C0440F551F8A95E2F70F
:1048C000CA01922F982B91A392A18095892382A34C
:1048D000789400C066E471E0F801492D4095DB0151
:1048E0009D91BD0180819F3F09F467C0292F2295CA
:1048F0002F7030E0D90190962C9130E09F7002C06B
:10490000359527959A95E2F720FD57C08929808330
:104910003196A616B70619F7F701319780818F3FB8
:1049200011F00E94460AB0EABA95F1F7990CE6E454
:10493000EE16E1E0FE0609F0B0CF48E050E0B80125
:1049400082E193E00E94BE2D009741F028E0F8013B
:10495000A2E1B3E001900D922A95E1F700911B03CB
:10496000892B69F181E08093CD020E949E1590937E
:10497000CC028093CB028091CB029091CC020E941A
:104980008F15059700F110E0025E1C4F44E050E0E7
:1049900062E173E0C8010E94BE2DB12C892B51F059
:1049A00084E0E2E1F3E0D80101900D928A95E1F70D
:1049B000BB24B3941092CD0207C08423A8CF80916A
:1049C000CD028111D8CFB12C0E94BC0FA82EE0914E
:1049D0001B03882309F49FC019861A861B861C8630
:1049E0000E2F10E0025E1C4F80910B038A3008F0FE
:1049F0005CC040EF53E1BE01675F7F4FC8010E947A
:104A0000890F882309F476C04FE253E1BE01675F46
:104A10007F4FC8010E94890F882309F46BC046E3C9
:104A20005DE1BE01675F7F4FC8010E94890F882347
:104A300009F460C04FE252E1BE01675F7F4FC801D9
:104A40000E94890F882309F455C045E053E1BE0157
:104A5000675F7F4FC8010E94890F882309F44AC00D
:104A600046EE52E1BE01675F7F4FC8010E94890F89
:104A7000882309F43FC010920B0380911A0390E041
:104A800044E050E0BE01675F7F4F825E9C4F0E9412
:104A9000BE2D21E02093D402892BF1F4A12C8A2D84
:104AA0008B292C96EBE00C947B2D8091CE0290917B
:104AB000CF020E948F15843F914008F09ACF8091D9
:104AC000D402882359F3FE01399684E0DF011D9258
:104AD0008A95E9F71092D402E0911A03F0E0E25EC1
:104AE000FC4F89859A85AB85BC8580839183A283A1
:104AF000B383D5CF80910B038F3F31F08F5F8093CD
:104B00000B038A3008F4B9CF0E949E159093CF0210
:104B10008093CE02D4CF00911A0310E0025E1C4FA6
:104B2000F0E0E25EFC4F84E0A7EEB2E001900D926F
:104B30008A95E1F764E070E087EE92E00E940E094A
:104B40008093E60284E0EBEEF2E0D80101900D9252
:104B50008A95E1F74091340350E06091330370E0AF
:104B6000615D7C4FCE0109960E94CB2D8985809393
:104B7000F00261E070E0CE0109960E940E09809378
:104B8000EF02C090F102D090F202E090F302F090B8
:104B9000F4028091D0029091D102A091D202B09102
:104BA000D302C816D906EA06FB06D1F0C092D0029D
:104BB000D092D102E092D202F092D3020E94BC0FB6
:104BC00081110EC00E945E08C61AD70AE80AF90AC7
:104BD000C0920C03D0920D03E0920E03F0920F03EB
:104BE00088E0E5EFF2E0AEE7B4E001900D928A953F
:104BF000E1F78091FE02882319F00E9452104FCFF6
:104C00000E9437104CCFA6E0B0E0E9E0F6E20C9449
:104C1000662D0E949E158C018091C9029091CA0256
:104C20008017910781F019821A820E949E15682FC1
:104C300049815A81792F80E090E00E94A623109349
:104C4000CA020093C9022696E4E00C94822D1F92BA
:104C50001FB61F9211248F939F93AF93BF938091A0
:104C60002404811113C08091250490912604A09101
:104C70002704B09128044196A11DB11D80932504FD
:104C800090932604A0932704B0932804BF91AF917A
:104C90009F918F911F901FBE1F901895CDB7DEB7C3
:104CA0002C970FB6F894DEBF0FBECDBF85B78068D6
:104CB00085BF85B7806885BF84B7877F84BF0FB6FF
:104CC000F894A895809160008861809360001092AC
:104CD00060000FBE80E890E00FB6F894809361000A
:104CE000909361000FBE88E09AE0909393028093C6
:104CF00092020E9401070E94A2078091E200846054
:104D00008093E2007894809136048823A1F010917A
:104D1000E9001F709091EC00892F817090FD80E870
:104D2000182B1092E9008091E80083FD0E942A1858
:104D30001F701093E90082E084BD93E095BD9AEF67
:104D400097BD80936E0010920C0310920D03109289
:104D50000E0310920F0384988C988FE891E00197CE
:104D6000F1F700C000000E940A0A80934A010E94E5
:104D7000BC0F81110E94E22B90914A0181E098279B
:104D800090933303A82FA91BA093110390914A017C
:104D90008093340390914A018093100380914A01DB
:104DA000811106C086EF8093540187EF80935301F1
:104DB00020915401E22FE295EF70F0E061A12F7095
:104DC00081E090E0AC0101C0440F2A95EAF7342F4E
:104DD0003095362331A322A1242B22A32091530105
:104DE000E22FE295EF70F0E031A12F7001C0880F43
:104DF0002A95EAF7982F9095932391A392A1892B56
:104E000082A38FE891E00197F1F700C000001091B4
:104E1000340365E373E044E551E083E5E82E81E087
:104E2000F82EFB0128C0DA012D91AD01822F829569
:104E30008F7090E0DC0190968C9190E02F7002C012
:104E4000959587952A95E2F78170D7019D917D010F
:104E5000292F22952F7030E0D90190962C9130E0C7
:104E60009F7002C0359527959A95E2F790E020FD56
:104E700092E0892B81938E2F861B8117A0F280915F
:104E80004A01811120C081E38093460183E380932E
:104E9000470182E38093480186E38093490186E0DD
:104EA000E6E6F1E0DE01119601900D928A95E1F7B8
:104EB000FE013196A0E4B1E0CE01079621912D9339
:104EC0008E179F07D9F780914A0194E0811190E0F5
:104ED00090931B0384E0891B80931A0300E411E084
:104EE00066E4E62E61E0F62EF80181918F018F3F96
:104EF00011F00E94460AE016F106B1F706E411E04F
:104F00005AE4E52E51E0F52ED8018D918D018F3FA9
:104F100011F00E94460AE016F106B1F788E0EEE1D2
:104F2000F3E0DF01282F1D922A95E9F7E2E1F3E093
:104F3000DF011D928A95E9F790E080E00E94EC2D58
:104F4000863E9E4F11F00E94241482E090E00E9461
:104F5000E42D8093260384E090E00E94EC2D909352
:104F60001D0380931C030E943224EFEFF6E721E03B
:104F7000E150F0402040E1F700C000000E943224E0
:104F80000E940A0AE4E08111E0E0F0E0E25EFC4FFA
:104F9000808185FF08C06FEF7FEF90E080E00E9486
:104FA000202E0E94380F83E090E00E94E42D90E0D4
:104FB0000E94840D0E942A0990E080E00E94EC2D5E
:104FC000863E9E4F21F00E9424140E94FD1181E034
:104FD00080937D0448E050E068E170E08EE794E063
:104FE0000E94D42D10927D0480917E048C7F11F458
:104FF0000E94FD1183E08093140480E28093860474
:105000000E949C2A6BE070E083E492E00E940D1005
:105010008823E9F18091140465E070E081FDA3C06C
:105020008EE392E00E940D10882389F16DE070E01C
:105030008CE292E00E940D10882349F10E945E08E4
:10504000605A75418F4F9F4F6093160470931704F9
:105050008093180490931904E9E8F4E080E092E06A
:10506000DF019C011D9221503040E1F7F093900642
:10507000E0938F068FEF9FEF9093880480938704CF
:1050800081E080931D0480931A04109215040E94FD
:10509000BC0F811102C00E94E52B8BE491E090933C
:1050A00021048093200428E1C22ED12C36E2A32EC5
:1050B00033E0B32E44E0842E912C8091360400E13D
:1050C00012E1853009F48AC00E94322407E213E01D
:1050D0009EE1E92E93E0F92E2FE233E0D701F801AB
:1050E00091918D912E173F0709F482C09817C1F353
:1050F0000E94BC0F282E712CD7016D907D01F80104
:1051000031908F01361431F13624512C44244394CC
:10511000842D8321B9F02220A9F05F8278860E9435
:105120009E159A878987F1E0FB8791E0842D86217F
:1051300009F490E09C874F81588569857A858B8535
:105140000E94A6235394440C26E05212E1CFF801AA
:1051500031976082739438E07312CECF0E94F00FC3
:10516000662463944AC089E392E05CCF8091360460
:10517000843031F10E947A100E943710109224047A
:1051800030E40FB6F894A895C09260000FBE30933B
:10519000600083B7817F846083BF83B7816083BFF2
:1051A0007894889583B78E7F83BF0FB6F894A895BF
:1051B00080916000886180936000109260000FBE53
:1051C00080913504882351F00E943224EEE1F3E00F
:1051D000819181118DC1AE16BF06D1F78091360441
:1051E000853009F4C3CF0E9403180E94DF0F6CCFF3
:1051F00098137ECF0E940326612C0E94BC0F0E9450
:105200007A10E12C712C80913403E81650F077204D
:1052100009F486C00E940A100E94AA150E9452102A
:1052200083C00E2D10E0F801EC5AFE4F8081E82F6C
:10523000E295EF70F0E0E0A1F0E08F7002C0F5952C
:10524000E7958A95E2F7E170D801AD5ABE4F2C91EF
:10525000A22FA295AF70B0E090968C9190E02F7045
:1052600002C0959587952A95E2F780FD51C080E0B0
:105270008E2BD801AB5CBC4FEC919E2F937089179D
:1052800009F444C0EE0FEE0FE82BEC93F0903303DB
:10529000FE0CEF70F0E0E955FE4F0F5C1C4F808173
:1052A000D8019C91890F8C93512C843084F0EF2D80
:1052B000F0E0E15DFC4F80818F5F80830E94BC0F36
:1052C000582E882339F160E08F2D0E941D1DF801B2
:1052D00080818D3F84F4EF2DF0E0E15DFC4F808113
:1052E000815080830E94BC0F582E8823B1F061E06A
:1052F0008F2D0E941D1DD8018C91082E000C990B3A
:10530000B4010E949B2DF80180837528E3947BCF24
:1053100082E0AECF55245394DACF55245394EBCF8B
:105320000E94AA1561107ACF86E0EFE3F3E0DE0178
:10533000119601900D928A95E1F7709040031091BB
:105340004103F0904203E090430300914403109224
:105350004103109242031092430310924403812FA1
:105360008F2909F445C080913D0390913E030E942E
:105370008F159C0190913803992309F4D8C02531E9
:105380003105B0F19F3F19F09F5F909338031123CF
:1053900059F00E94DA099FEF11160CF491E0899FF1
:1053A000802D112480934103FF2059F00E94DA09D7
:1053B00091E01F140CF09FEF899F802D11248093A2
:1053C000420380914103882399F060904203662054
:1053D00079F00E94FA09882309F482C0809341037E
:1053E000862D0E94FA09882309F47CC08093420329
:1053F0008E2D802B09F443C080913B0390913C0398
:105400000E948F159C0190913903992309F48AC059
:1054100021353105A0F19F3F19F09F5F909339032B
:10542000EE2059F00E94B8099FEF1E140CF491E091
:10543000899F802D112480934303002359F00E94FB
:10544000B80991E010160CF09FEF899F802D112470
:105450008093440380914303882389F0E0904403C0
:10546000EE2069F00E94FA098823F1F1809343034A
:105470008E2D0E94FA098823C9F1809344038091FC
:105480004003781216C080914103882311F018134D
:1054900010C020914203222311F02F110AC09091D5
:1054A0004403992311F0901304C030914303332334
:1054B000A9F10E94DC1786E0FE013196AFE3B3E06C
:1054C00001900D928A95E1F70E94DF0F90913703CA
:1054D000891709F4F2CD809337030E945E08EDCD61
:1054E00081E07CCF81E082CF81E0C0CF81E0C5CF79
:1054F00009BD19BD09B400FEFDCF8091D8008F7D94
:105500008093D8008091E00082608093E0008091D9
:10551000E00081FDFCCF0E94031860CE822B892B16
:1055200051F2C7CF2B30310508F077CFA8CF2B3001
:10553000310508F029CF5CCF1092B9008CE0809340
:10554000B8000895B0E0A0E0E8EAFAE20C945F2D1C
:10555000B82EEB010E949E156C01EE24E394F12C11
:10556000C431D10560F025E0E22EF12CCF3FDC07FD
:1055700031F0CE0164E170E00E94442D7B0184EAA9
:10558000A82E94E8992E1092BC00A092BC000E9414
:105590009E158C018091BC0087FF0DC08091B900E1
:1055A000887F8830F9F08091B900887F8031D1F010
:1055B0000FEF1FEF08C0C8010E948F15E816F9060B
:1055C00048F70EEF1FEFCF3FDC07E9F2C6010E945C
:1055D0008F15C817D907B8F6C801CDB7DEB7EBE00D
:1055E0000C947B2DB092BB009092BC000E949E1543
:1055F0008C018091BC0087FF0AC08091B900887F30
:10560000883111F08034A1F610E000E0E5CFC80148
:105610000E948F15E816F90660F7D3CF0F931F93FA
:10562000CF93DF93EB018093BB0084E88093BC00B1
:105630000E949E158C018091BC0087FF11C02091B3
:10564000B900287F81E090E0283211F490E080E0FA
:10565000919581959109DF91CF911F910F910895B7
:10566000CF3FDC0741F3C8010E948F15C817D90747
:1056700010F78EEF9FEFEFCFB0E0A0E0E2E4FBE2A7
:105680000C94622D6B018A017901B9010E94A22A52
:10569000E6010C0D1D1DC017D10711F097FF08C0C2
:1056A00024E92093BC00CDB7DEB7E8E00C947E2D52
:1056B000B70189910E940E2BEECFB0E0A0E0E3E6A7
:1056C000FBE20C94622DC62F6A017901B8010E9499
:1056D000A22A97FD0CC0B8018C2F0E940E2BE60168
:1056E000EC0CFD1CCE15DF0511F097FF08C024E976
:1056F0002093BC00CDB7DEB7E8E00C947E2DB80156
:1057000089910E940E2BEECF84E98093BC0008950E
:105710008EE14A9B02C08150E1F74A9BFECF08957B
:105720005A9880E28A95F1F75A9A0895FC013BE075
:105730003A95F1F798E020E080E031E040E14A95C9
:10574000F1F7880F4A9B02C08160232742E04A9507
:10575000F1F7000040E14A95F1F7915079F790E1B7
:105760009A95F1F799B132E03A95F1F7000040E1EE
:105770004A95F1F792FB992790F992272081920F91
:1057800090830895A1E0B0E0E8ECFBE20C94642D76
:1057900019828C017C01E60EF11C0E151F0541F4E7
:1057A00081E09981911180E02196E6E00C94802DB2
:1057B0000E94882BCE0101960E94962BF8018193BE
:1057C0008F01EBCF529A5A9A089552985A9AEA9AB0
:1057D000E9E6F0E080818F7C808308956150770B4B
:1057E00091E001C0990F6A95EAF720E031E091114C
:1057F00008C0222391F05A9A80E28A95F1F75A98CC
:105800000895492F482339F05A9A232740E24A95B0
:10581000F1F79695ECCF5A98F9CF5A98EDCFFF92C1
:105820000F931F93CF93DF93EC018C01060F111D93
:10583000C017D10729F4CDB7DEB7E5E00C94812D70
:10584000F9900E94902B68E08F2D0E94EE2BF0CFF4
:105850001F920F920FB60F9211240F931F932F9345
:105860003F934F935F936F937F938F939F93AF93E8
:10587000BF93EF93FF93CF93DF930F92CDB7DEB734
:1058800019820E94882BCE0101960E94962B082F28
:10589000069506950695282F22952570902F9570D0
:1058A000290F922F937026952695920F982797701F
:1058B0008981982B09F05CC0093008F059C080E15B
:1058C0008A95F1F75A9A529A82E08A95F1F700C0C8
:1058D0005A9888E0089F80011124D801A050BF4F3A
:1058E0001696ED91FC9117973097A9F06091A5015C
:1058F0007091A60114962D913C911597260F371F94
:1059000011968D919C911297680F791F13964C9167
:1059100013978C910995F801E050FF4F638166233E
:1059200051F02091A5013091A60184819581820FCB
:10593000931F0E940F2C0E94902B80E18A95F1F713
:105940005A9852985A9A80E18A95F1F7F801E050F6
:10595000FF4F6081662351F02091A5013091A6018F
:1059600081819281820F931F0E94C22B0E94882BFB
:105970000F90DF91CF91FF91EF91BF91AF919F91E8
:105980008F917F916F915F914F913F912F911F91D7
:105990000F910F900FBE0F901F9018950F931F93AC
:1059A000CF93DF93EC0109970CF04CC0F894529A16
:1059B0005A9885E08A95F1F700009C2F969595708E
:1059C0008C2F8570980F892F83709695969523E07C
:1059D000CC0FDD1F2A95E1F7980F8E01092B0E944D
:1059E000902B00C068E0802F0E94EE2B80E18A950A
:1059F000F1F752985A9A4A9B1EC087E090E04A9964
:105A00001CC0FE01E050FF4F63816623F9F0209136
:105A1000A5013091A60184819581820F931F0E9478
:105A2000C22B811113C0529A5A9A7894DF91CF9168
:105A30001F910F91089500C0DECF019729F4529A6B
:105A40005A9A789480E0F2CF00C0D9CF0E94882B78
:105A500080E28A95F1F75A98529A80E18A95F1F797
:105A6000C050DF4F6881662351F02091A50130912D
:105A7000A60189819A81820F931F0E940F2C0E9498
:105A8000902B789481E0D2CFAA1BBB1B51E107C0B9
:105A9000AA1FBB1FA617B70710F0A61BB70B881FBE
:105AA000991F5A95A9F780959095BC01CD0108954D
:105AB0002F923F924F925F926F927F928F929F921E
:105AC000AF92BF92CF92DF92EF92FF920F931F930C
:105AD000CF93DF93CDB7DEB7CA1BDB0B0FB6F894BD
